{
  "_format": "hh-sol-artifact-1",
  "contractName": "MerkleAirdrop",
  "sourceName": "contracts/MerkleAirdrop.sol",
  "abi": [
    {
      "inputs": [
        {
          "internalType": "address",
          "name": "_token",
          "type": "address"
        },
        {
          "internalType": "bytes32",
          "name": "_merkleRoot",
          "type": "bytes32"
        }
      ],
      "stateMutability": "nonpayable",
      "type": "constructor"
    },
    {
      "anonymous": false,
      "inputs": [
        {
          "indexed": true,
          "internalType": "address",
          "name": "claimer",
          "type": "address"
        },
        {
          "indexed": false,
          "internalType": "uint256",
          "name": "amount",
          "type": "uint256"
        }
      ],
      "name": "AirdropClaimed",
      "type": "event"
    },
    {
      "anonymous": false,
      "inputs": [
        {
          "indexed": false,
          "internalType": "bytes32",
          "name": "newMerkleRoot",
          "type": "bytes32"
        }
      ],
      "name": "MerkleRootUpdated",
      "type": "event"
    },
    {
      "inputs": [
        {
          "internalType": "uint256",
          "name": "amount",
          "type": "uint256"
        },
        {
          "internalType": "bytes32[]",
          "name": "merkleProof",
          "type": "bytes32[]"
        }
      ],
      "name": "claim",
      "outputs": [],
      "stateMutability": "nonpayable",
      "type": "function"
    },
    {
      "inputs": [
        {
          "internalType": "address",
          "name": "",
          "type": "address"
        }
      ],
      "name": "claimed",
      "outputs": [
        {
          "internalType": "bool",
          "name": "",
          "type": "bool"
        }
      ],
      "stateMutability": "view",
      "type": "function"
    },
    {
      "inputs": [],
      "name": "merkleRoot",
      "outputs": [
        {
          "internalType": "bytes32",
          "name": "",
          "type": "bytes32"
        }
      ],
      "stateMutability": "view",
      "type": "function"
    },
    {
      "inputs": [],
      "name": "token",
      "outputs": [
        {
          "internalType": "address",
          "name": "",
          "type": "address"
        }
      ],
      "stateMutability": "view",
      "type": "function"
    },
    {
      "inputs": [
        {
          "internalType": "bytes32",
          "name": "_merkleRoot",
          "type": "bytes32"
        }
      ],
      "name": "updateMerkleRoot",
      "outputs": [],
      "stateMutability": "nonpayable",
      "type": "function"
    },
    {
      "inputs": [
        {
          "internalType": "uint256",
          "name": "amount",
          "type": "uint256"
        }
      ],
      "name": "withdrawTokens",
      "outputs": [],
      "stateMutability": "nonpayable",
      "type": "function"
    }
  ],
  "bytecode": "0x60806040523480156200001157600080fd5b5060405162000d9e38038062000d9e83398181016040528101906200003791906200012b565b816000806101000a81548173ffffffffffffffffffffffffffffffffffffffff021916908373ffffffffffffffffffffffffffffffffffffffff16021790555080600181905550505062000172565b600080fd5b600073ffffffffffffffffffffffffffffffffffffffff82169050919050565b6000620000b8826200008b565b9050919050565b620000ca81620000ab565b8114620000d657600080fd5b50565b600081519050620000ea81620000bf565b92915050565b6000819050919050565b6200010581620000f0565b81146200011157600080fd5b50565b6000815190506200012581620000fa565b92915050565b6000806040838503121562000145576200014462000086565b5b60006200015585828601620000d9565b9250506020620001688582860162000114565b9150509250929050565b610c1c80620001826000396000f3fe608060405234801561001057600080fd5b50600436106100625760003560e01c80632eb4a7ab146100675780632f52ebb714610085578063315a095d146100a15780634783f0ef146100bd578063c884ef83146100d9578063fc0c546a14610109575b600080fd5b61006f610127565b60405161007c9190610624565b60405180910390f35b61009f600480360381019061009a91906106e4565b61012d565b005b6100bb60048036038101906100b69190610744565b6103fd565b005b6100d760048036038101906100d2919061079d565b6104dd565b005b6100f360048036038101906100ee9190610828565b61051e565b6040516101009190610870565b60405180910390f35b61011161053e565b60405161011e919061089a565b60405180910390f35b60015481565b600260003373ffffffffffffffffffffffffffffffffffffffff1673ffffffffffffffffffffffffffffffffffffffff16815260200190815260200160002060009054906101000a900460ff16156101ba576040517f08c379a00000000000000000000000000000000000000000000000000000000081526004016101b190610912565b60405180910390fd5b600033846040516020016101cf92919061099b565b604051602081830303815290604052805190602001209050610235838380806020026020016040519081016040528093929190818152602001838360200280828437600081840152601f19601f8201169050808301925050505050505060015483610562565b610274576040517f08c379a000000000000000000000000000000000000000000000000000000000815260040161026b90610a13565b60405180910390fd5b6001600260003373ffffffffffffffffffffffffffffffffffffffff1673ffffffffffffffffffffffffffffffffffffffff16815260200190815260200160002060006101000a81548160ff02191690831515021790555060008054906101000a900473ffffffffffffffffffffffffffffffffffffffff1673ffffffffffffffffffffffffffffffffffffffff1663a9059cbb33866040518363ffffffff1660e01b8152600401610327929190610a42565b6020604051808303816000875af1158015610346573d6000803e3d6000fd5b505050506040513d601f19601f8201168201806040525081019061036a9190610a97565b6103a9576040517f08c379a00000000000000000000000000000000000000000000000000000000081526004016103a090610b10565b60405180910390fd5b3373ffffffffffffffffffffffffffffffffffffffff167f650e45f04ef8a0c267b2f78d983913f69ae3a353b2b32de5429307522be0ab55856040516103ef9190610b30565b60405180910390a250505050565b60008054906101000a900473ffffffffffffffffffffffffffffffffffffffff1673ffffffffffffffffffffffffffffffffffffffff1663a9059cbb33836040518363ffffffff1660e01b8152600401610458929190610a42565b6020604051808303816000875af1158015610477573d6000803e3d6000fd5b505050506040513d601f19601f8201168201806040525081019061049b9190610a97565b6104da576040517f08c379a00000000000000000000000000000000000000000000000000000000081526004016104d190610b97565b60405180910390fd5b50565b806001819055507f90004c04698bc3322499a575ed3752dd4abf33e0a7294c06a787a0fe01bea941816040516105139190610624565b60405180910390a150565b60026020528060005260406000206000915054906101000a900460ff1681565b60008054906101000a900473ffffffffffffffffffffffffffffffffffffffff1681565b60008261056f8584610579565b1490509392505050565b60008082905060005b84518110156105be576105af828683815181106105a2576105a1610bb7565b5b60200260200101516105c9565b91508080600101915050610582565b508091505092915050565b60008183106105e1576105dc82846105f4565b6105ec565b6105eb83836105f4565b5b905092915050565b600082600052816020526040600020905092915050565b6000819050919050565b61061e8161060b565b82525050565b60006020820190506106396000830184610615565b92915050565b600080fd5b600080fd5b6000819050919050565b61065c81610649565b811461066757600080fd5b50565b60008135905061067981610653565b92915050565b600080fd5b600080fd5b600080fd5b60008083601f8401126106a4576106a361067f565b5b8235905067ffffffffffffffff8111156106c1576106c0610684565b5b6020830191508360208202830111156106dd576106dc610689565b5b9250929050565b6000806000604084860312156106fd576106fc61063f565b5b600061070b8682870161066a565b935050602084013567ffffffffffffffff81111561072c5761072b610644565b5b6107388682870161068e565b92509250509250925092565b60006020828403121561075a5761075961063f565b5b60006107688482850161066a565b91505092915050565b61077a8161060b565b811461078557600080fd5b50565b60008135905061079781610771565b92915050565b6000602082840312156107b3576107b261063f565b5b60006107c184828501610788565b91505092915050565b600073ffffffffffffffffffffffffffffffffffffffff82169050919050565b60006107f5826107ca565b9050919050565b610805816107ea565b811461081057600080fd5b50565b600081359050610822816107fc565b92915050565b60006020828403121561083e5761083d61063f565b5b600061084c84828501610813565b91505092915050565b60008115159050919050565b61086a81610855565b82525050565b60006020820190506108856000830184610861565b92915050565b610894816107ea565b82525050565b60006020820190506108af600083018461088b565b92915050565b600082825260208201905092915050565b7f41697264726f7020616c726561647920636c61696d65642e0000000000000000600082015250565b60006108fc6018836108b5565b9150610907826108c6565b602082019050919050565b6000602082019050818103600083015261092b816108ef565b9050919050565b60008160601b9050919050565b600061094a82610932565b9050919050565b600061095c8261093f565b9050919050565b61097461096f826107ea565b610951565b82525050565b6000819050919050565b61099561099082610649565b61097a565b82525050565b60006109a78285610963565b6014820191506109b78284610984565b6020820191508190509392505050565b7f496e76616c6964206d65726b6c652070726f6f662e0000000000000000000000600082015250565b60006109fd6015836108b5565b9150610a08826109c7565b602082019050919050565b60006020820190508181036000830152610a2c816109f0565b9050919050565b610a3c81610649565b82525050565b6000604082019050610a57600083018561088b565b610a646020830184610a33565b9392505050565b610a7481610855565b8114610a7f57600080fd5b50565b600081519050610a9181610a6b565b92915050565b600060208284031215610aad57610aac61063f565b5b6000610abb84828501610a82565b91505092915050565b7f5472616e73666572206661696c65642e00000000000000000000000000000000600082015250565b6000610afa6010836108b5565b9150610b0582610ac4565b602082019050919050565b60006020820190508181036000830152610b2981610aed565b9050919050565b6000602082019050610b456000830184610a33565b92915050565b7f5769746864726177206661696c65642e00000000000000000000000000000000600082015250565b6000610b816010836108b5565b9150610b8c82610b4b565b602082019050919050565b60006020820190508181036000830152610bb081610b74565b9050919050565b7f4e487b7100000000000000000000000000000000000000000000000000000000600052603260045260246000fdfea2646970667358221220afa149c736a249b32d0e7bcc3413025f588923c2804fb0153ffcfdc6fc792a3964736f6c63430008180033",
  "linkReferences": {},
  "deployedLinkReferences": {}
}